{
  "transactions": [
    {
      "hash": null,
      "transactionType": "CALL",
      "contractName": null,
      "contractAddress": "0x779877a7b0d9e8603169ddbd7836e478b4624789",
      "function": "transferAndCall(address,uint256,bytes)",
      "arguments": [
        "0x9DdfaCa8183c41ad55329BdeeD9F6A8d53168B1B",
        "3000000000000000000",
        "0x4c2c738497e44d91647f9b0255b76b1fc6c0cd7430c5db42e956af1870808c12"
      ],
      "transaction": {
        "from": "0xf39fd6e51aad88f6f4ce6ab8827279cfffb92266",
        "to": "0x779877a7b0d9e8603169ddbd7836e478b4624789",
        "gas": "0x14cbb",
        "value": "0x0",
        "input": "0x4000aea00000000000000000000000009ddfaca8183c41ad55329bdeed9f6a8d53168b1b00000000000000000000000000000000000000000000000029a2241af62c0000000000000000000000000000000000000000000000000000000000000000006000000000000000000000000000000000000000000000000000000000000000204c2c738497e44d91647f9b0255b76b1fc6c0cd7430c5db42e956af1870808c12",
        "nonce": "0x4436",
        "chainId": "0xaa36a7"
      },
      "additionalContracts": [],
      "isFixedGasLimit": false
    }
  ],
  "receipts": [],
  "libraries": [],
  "pending": [],
  "returns": {},
  "timestamp": 1755702083,
  "chain": 11155111,
  "commit": "7e0d5a4"
}